:020000040801F1
:1000000028BB0020D5010108C5070108C706010863
:10001000C1070108910501087B0F010800000000DD
:100020000000000000000000000000006509010859
:1000300095050108000000004D080108510A01085B
:10004000EF010108EF010108EF010108EF010108CC
:10005000EF010108EF010108EF010108EF010108BC
:10006000EF010108EF010108EF010108EF010108AC
:10007000EF010108EF010108EF010108EF0101089C
:10008000EF010108EF010108EF010108EF0101088C
:10009000EF010108EF010108EF010108EF0101087C
:1000A000EF010108EF010108EF010108EF0101086C
:1000B000EF010108B50A0108EF010108EF0101088D
:1000C000EF010108EF010108EF010108EF0101084C
:1000D000EF0101084D0C0108EF010108EF010108D3
:1000E000EF010108EF010108EF010108EF0101082C
:1000F000EF010108EF010108EF010108EF0101081C
:10010000EF010108EF010108EF010108EF0101080B
:10011000EF010108EF010108EF010108EF010108FB
:10012000EF010108EF010108EF010108EF010108EB
:1001300000F002F800F03FF80AA090E8000C8244BA
:100140008344AAF10107DA4501D100F034F8AFF297
:10015000090EBAE80F0013F0010F18BFFB1A43F0A5
:1001600001031847000F0000200F0000103A24BFC1
:1001700078C878C1FAD8520724BF30C830C144BF0C
:1001800004680C607047000000230024002500264E
:10019000103A28BF78C1FBD8520728BF30C148BFEA
:1001A0000B607047642900F07780002070471FB50E
:1001B0001FBD10B510BD00F037F91146FFF7F7FF6E
:1001C00000F0F8FE00F055F903B4FFF7F2FF03BCAE
:1001D00000F0D5FE0948804709480047FEE7FEE7E2
:1001E000FEE7FEE7FEE7FEE7FEE7FEE7FEE7FEE7E7
:1001F00004480549054A064B70470000550A0108A6
:100200003101010828B5002028BB002028B70020B4
:1002100028B70020704700000FB4044910B503AAA6
:10022000029800F0D3F810BC5DF814FBAC0000207D
:100230002DE9F0410E460446002020622046E16888
:10024000884730B3252805D0D4E901219047206A9A
:10025000401CF2E7E168204600278847050018D0D7
:10026000A5F14100192802D820354FF40067324625
:10027000294620462760FFF795FF40B1012804D0AA
:10028000F61D26F007060836D8E7361DD6E72846BD
:10029000DAE7206ABDE8F0812DE9F0410646002446
:1002A00010687529314616A510D0AFF300800028DC
:1002B00002DA404213A507E031688A0701D512A58A
:1002C00002E0490704D511A5012401E0AFF3008045
:1002D00000210A2206F1240709E0B0FBF2FCB0FB82
:1002E000F2F302FB1C00303078541846491C0028F9
:1002F000F3D123462A463046BDE8F04100F00CB861
:10030000000000002D0000002B0000002000000075
:1003100070477047704770472DE9F0470D46994682
:100320009246044600F124080168880604D5E06975
:1003300021F01001216000E00120A84201DD471BEF
:1003400000E00027A1697A1902EB0900081AA061F0
:100350002078C00602D42046AFF30080002608E0D3
:10036000D4E901211AF806009047206A401C761C47
:1003700020624E45F4DB2078C0060AD52046AFF354
:10038000008006E0D4E9012130209047206A401C1B
:100390002062381EA7F10107F4DC07E0D4E901214F
:1003A00018F805009047206A401C2062281EA5F11D
:1003B0000105F3DC2046AFF300802078000602D56B
:1003C0000220BDE8F0870120FBE70000074B70B575
:1003D0000D467B4400F011F80446284600F020F852
:1003E00010B14FF0FF3070BD204670BDC30B000050
:1003F00001694A1C02610878704700B58FB0CDE9E9
:1004000001310021059105497944CDE903101146D8
:100410006846FFF70DFF0FB000BD0000E5FFFFFFCE
:10042000007B00F080007047754600F02BF8AE4668
:1004300005006946534620F00700854618B020B5F0
:10044000FFF7D6FEBDE820404FF000064FF0000752
:100450004FF000084FF0000B21F00701AC46ACE86C
:10046000C009ACE8C009ACE8C009ACE8C0098D46D9
:10047000704710B50446AFF300802046BDE8104039
:10048000FFF7A2BE00487047C8B4002000214170A9
:100490000249096809B1012101707047B0000020CC
:1004A00070B50446206A00F0DBFCC5B20548064979
:1004B0000968455404480068401C0349086001204D
:1004C000607070BDC8000020B00000202DE9F04130
:1004D00004460E46174600250BE0715D206A00F0C9
:1004E000C4FC00BF4021206A00F0F1FB0128F9D1D3
:1004F0006D1CBD42F1D3BDE8F08100000EB50121B5
:10050000022000F0A5F90020ADF80600ADF80200C9
:1005100040F2E730ADF804004720ADF800000020BD
:100520008DF808006946084800F000FB01210648E4
:1005300000F0D0FA01221146034800F0EEFA012142
:10054000014800F0CDFA0EBD0004004010B500F0E7
:1005500003F8FFF7D3FF10BD08B51D208DF800008C
:1005600001208DF8030000208DF801008DF80200B5
:10057000684600F029F908BD70B50546002404E07E
:10058000204600F0A3F8601CC4B2AC42F8DB70BD9A
:1005900000BFFEE770472DE9F04102460025002626
:1005A000002000230024002791F803C00CF00F0561
:1005B00091F803C00CF0100CBCF1000F03D091F8BF
:1005C00002C04CEA050591F800C0BCF1000F31D023
:1005D000146800202BE04FF0010C0CFA00F3B1F886
:1005E00000C00CEA03069E4220D183004FF00F0C9E
:1005F0000CFA03F7BC4305FA03FC4CEA040491F837
:1006000003C0BCF1280F06D14FF0010C0CFA00FC1E
:10061000C2F814C00AE091F803C0BCF1480F05D13C
:100620004FF0010C0CFA00FCC2F810C0401C082866
:10063000D1D31460B1F800C0BCF1FF0F34DD5468B1
:1006400000202EE000F1080C4FF0010808FA0CF32E
:10065000B1F800C00CEA03069E4221D183004FF09E
:100660000F0C0CFA03F7BC4305FA03FC4CEA040434
:1006700091F803C0BCF1280F05D100F1080C08FA6D
:100680000CF8C2F8148091F803C0BCF1480F07D1F0
:1006900000F1080C4FF0010808FA0CF8C2F81080BD
:1006A000401C0828CED35460BDE8F08102460020EB
:1006B00093680B400BB1012000E0002070474161BE
:1006C00070470161704700BFFEE7000038B504467F
:1006D000104901EB04114868012100F0C9F80D48E8
:1006E00000EB0410007B8DF803000A4800EB0410B7
:1006F0000088ADF80000074800EB0410407B8DF83F
:100700000200044901EB041188686946FFF743FFC2
:1007100038BD00000000002010B54FF4004126480D
:10072000FFF7C4FF28B101212348FFF7BFFF0128CD
:100730001BD122480078C0B1642000F023FC4FF4A4
:1007400000411D48FFF7B2FF20B900201B49087087
:10075000012010BD01211848FFF7A8FF012828D16A
:100760000020164908700220F3E74FF400411248B8
:10077000FFF79CFF01281CD101210F48FFF796FFCE
:10078000B8B90E480078A0B9642000F0FBFB4FF424
:1007900000410948FFF78AFF01280AD101210648D4
:1007A000FFF784FF28B90548007810B901200349F4
:1007B00008700020CDE70000000801404000002044
:1007C00000BFFEE77047000070B5002100230F2234
:1007D000C47804B3154C246804F4E064C4F5E06400
:1007E000210AC1F10403CA40447804FA03F1847871
:1007F0001440214309010E4C0678A155047804F0F9
:100800001F050124AC4005786D11AD0005F1E02510
:10081000C5F8004109E0047804F01F050124AC404C
:10082000044D0678761145F8264070BD0CED00E0C9
:1008300000E400E080E100E002490143024A116067
:10084000704700000000FA050CED00E07047000062
:1008500029B1064AD2690243044BDA6104E0034A33
:10086000D2698243014BDA617047000000100240F8
:1008700029B1064A92690243044B9A6104E0034A93
:1008800092698243014B9A61704700000010024058
:1008900030B500210022002400232D4D6D6805F0A5
:1008A0000C0121B1042905D0082923D105E0294DE7
:1008B000056022E0274D05601FE0254D6D6805F4B9
:1008C0007012234D6D6805F48034022505EB9242C9
:1008D0001CB9214D554305600BE01D4D6D6805F4B5
:1008E00000351DB11C4D5543056002E0194D5543BF
:1008F000056002E0174D056000BF00BF144D6D6834
:1009000005F0F0010909154D6B5C0568DD40456097
:100910000F4D6D6805F4E061090A104D6B5C456888
:10092000DD4085600A4D6D6805F46051C90A0B4DC4
:100930006B5C4568DD40C560054D6D6805F4404160
:10094000890B074D6B5CC568B5FBF3F5056130BDE0
:100950000010024000127A0000093D00B40000209F
:10096000C4000020704710B500F002F810BD000070
:100970000CB50020019000903348006840F48030AE
:100980003149086000BF3048006800F40030009032
:100990000198401C0190009818B90198B0F5A06F1B
:1009A000F1D12948006800F4003010B10120009016
:1009B00001E0002000900098012843D123480068FE
:1009C00040F01000214908600846006820F003004C
:1009D00008600846006840F0020008601A48406855
:1009E000194948600846406848600846406840F435
:1009F000806048600846406820F47C1048600846E3
:100A0000406840F4E81048600846006840F0807094
:100A1000086000BF0C48006800F000700028F9D0A2
:100A20000948406820F003000749486008464068CC
:100A300040F00200486000BF0348406800F00C002E
:100A40000828F9D10CBD000000100240002002402F
:100A50007047000010B51348006840F001001149CC
:100A6000086008464068104908400E49486008463A
:100A700000680E4908400B4908600846006820F4E9
:100A8000802008600846406820F4FE0048604FF46B
:100A90001F008860FFF767FF4FF00060044908609F
:100AA00010BD0000001002400000FFF8FFFFF6FE3E
:100AB00008ED00E010B50121054800F01DF828B14F
:100AC0000121034800F009F800F082F810BD000091
:100AD00000040040CA4302827047CA430282704742
:100AE00021B1028842F00102028004E002884FF640
:100AF000FE731A400280704730B502460020002382
:100B00000024158A05EA0103958905EA010413B159
:100B10000CB1012000E0002030BD1AB183890B43E5
:100B2000838102E083898B4383817047002202889E
:100B30001D4B98420ED01D4B98420BD0B0F1804F08
:100B400008D01B4B984205D01A4B984202D01A4B42
:100B5000984204D14FF68F731A404B881A43174BB3
:100B6000984207D0164B984204D04FF6FF431A40E4
:100B7000CB881A4302808B8883850B8803850A4BB8
:100B800098420BD0094B984208D00E4B984205D0A2
:100B90000D4B984202D00D4B984201D10B7A03863F
:100BA0000123838270470000002C01400034014083
:100BB0000004004000080040000C0040001000400D
:100BC0000014004000400140004401400048014042
:100BD00010B51848006820B116480068401E154935
:100BE000086015480068401C1349086013490968EB
:100BF00088421ED90020104908601148007860B171
:100C00004FF480710F48FFF75AFD04210E48FFF79B
:100C100056FD00200A4908700BE04FF48071094826
:100C2000FFF74FFD04210848FFF74BFD0120044961
:100C3000087010BD440000204C0000204800002037
:100C400050000020000801400014014010B540F29F
:100C500025510E4800F048F838B140F225510B48B4
:100C600000F01AF80A48FFF71BFC40F2244107483D
:100C700000F03AF828B10648FFF708FC0348001DC9
:100C8000008800200349088010BD000000380140A2
:100C900084000020042C014010B50022002340F6FF
:100CA0006A14A14200D100BF0A1201249440A3B2E9
:100CB000DC43048010BD21B1828942F4005282815C
:100CC00004E082894DF6FF731A4082817047024624
:100CD0000020B1F5007F00D100BF13880B400BB19D
:100CE000012000E00020704770B502460024002378
:100CF0000025002040F66A16B14200D100BFC1F3C2
:100D0000421501F01F03012606FA03F3012D02D15B
:100D10009689334006E0022D02D1168A334001E065
:100D2000968A33400C12012606FA04F416883440E1
:100D300013B10CB1012000E0002070BDF0B50346F6
:100D4000002400260025002040F66A17B94200D191
:100D500000BF1846C1F3421401F01F06012707FA2D
:100D600006F5012C01D10C3004E0022C01D1103029
:100D700000E014301AB107682F43076002E00768EB
:100D8000AF430760F0BD00002DE9F04786B005468F
:100D90000E460024A24600BFA1460027B08900B13C
:100DA00000BF2F462C8A4CF6FF700440F0880443A5
:100DB0002C82AC894EF6F3100440B0883189084388
:100DC000718908430443AC81AC8A4FF6FF4004406C
:100DD000B0890443AC8201A8FFF75AFD1F4887423F
:100DE00002D1DDF810A001E0DDF80CA0A88900F424
:100DF000004040B10AEBCA0000EB0A10316849001C
:100E0000B0FBF1F807E00AEBCA0000EB0A1031680A
:100E10008900B0FBF1F86420B8FBF0F00401200970
:100E2000642101FB1089A88900F4004040B1322000
:100E300000EBC900B0FBF1F000F00700044308E04C
:100E4000322000EB09106421B0FBF1F000F00F003C
:100E500004432C8106B0BDE8F08700000038014053
:100E600001468888C0F308007047C1F308028280F9
:100E70007047000010B586B0044601216069FFF795
:100E8000F7FC2E49206A884204D10121A069FFF7AE
:100E9000EFFC03E00121A069FFF7DAFC18208DF8D0
:100EA00017002089ADF8140003208DF8160005A95D
:100EB000606AFFF770FB04208DF81700E088ADF83A
:100EC000140005A9606AFFF766FBE06818B9002006
:100ED000ADF8080003E04FF48050ADF80800184961
:100EE000206951F8200001900020ADF810000C207E
:100EF000ADF80E00A08980B2ADF80C000020ADF86E
:100F00000A0001A9206AFFF73FFF012240F22551A4
:100F1000206AFFF713FF012240F22441206AFFF705
:100F20000DFF002240F22771206AFFF707FF012121
:100F3000206AFFF7C0FE06B010BD00000038014077
:100F40005400002010B50446204600F004F8204666
:100F5000FFF790FF10BD38B50446207F8DF80000E4
:100F600001208DF80300E0788DF8010020798DF8DC
:100F700002006846FFF728FC38BD00BFFEE700BF4F
:100F8000704700000349086000BF02490968002952
:100F9000FBD170474400002000BF054A128802F0D0
:100FA0004002002AF9D0C2B2014B1B1D1A807047C3
:100FB000003801401F48204908604FF4A060FFF747
:100FC0003BFCFFF7C3FA0420FFF7D6FA1B48FFF7F4
:100FD000B9FF2EE01948007801280BD100201749ED
:100FE00008701748174902681448FFF76FFA002085
:100FF00013490860FFF790FB012802D0022816D1A0
:101000000AE01148006832380F4908600846016854
:101010000EA0FFF701F90BE00B48006832300A49D7
:1010200008600846016809A0FFF7F6F800E000BF75
:1010300000BFCFE70000010808ED00E084000020B9
:10104000B0000020C8000020480000205365745400
:10105000696D65436F756E744C6564203A20256434
:10106000000000008410010800000020C8000000FB
:101070006C0101084C110108C800002060BA000092
:101080008801010800010000040000000008014080
:1010900010030000040000002000000000140140C4
:1010A0001003000000800000040000000008014060
:1010B0004803000001000000040000000008014097
:1010C000280300000100000000000000E803000009
:1010D0000000000001000000B004000060090000F2
:1010E000C012000080250000004B000000960000A8
:1010F00000E1000000C201000084030000000000C5
:1011000000040000000600000000000203000004CC
:1011100000020000000000000700000004000000C2
:101120000040000025000000003801400008014098
:1011300000000000000000000000000001020304A5
:0C11400001020304060708090204060867
:0400000508010131BC
:00000001FF
