:020000040800F2
:1000000000D00020D501000879080008DF060008AC
:1000100075080008F50300080B1000080000000038
:10002000000000000000000000000000190A0008A5
:10003000F90300080000000001090008050B000892
:10004000EF010008EF010008EF010008EF010008D0
:10005000EF010008EF010008EF010008EF010008C0
:10006000EF010008EF010008EF010008EF010008B0
:10007000EF010008EF010008EF010008EF010008A0
:10008000EF010008EF010008EF010008EF01000890
:10009000EF010008EF010008EF010008EF01000880
:1000A000EF010008EF010008EF010008EF01000870
:1000B000EF010008690B0008EF010008EF010008DC
:1000C000EF010008EF010008EF010008EF01000850
:1000D000EF010008010D0008EF010008EF01000822
:1000E000EF010008EF010008EF010008EF01000830
:1000F000EF010008EF010008EF010008EF01000820
:10010000EF010008EF010008EF010008EF0100080F
:10011000EF010008EF010008EF010008EF010008FF
:10012000EF010008EF010008EF010008EF010008EF
:1001300000F002F800F03AF80AA090E8000C8244BF
:100140008344AAF10107DA4501D100F02FF8AFF29C
:10015000090EBAE80F0013F0010F18BFFB1A43F0A5
:10016000010318474C1100006C110000103A24BF25
:1001700078C878C1FAD8520724BF30C830C144BF0C
:1001800004680C607047000000230024002500264E
:10019000103A28BF78C1FBD8520728BF30C148BFEA
:1001A0000B6070471FB51FBD10B510BD00F072F891
:1001B0001146FFF7F7FF00F045FF00F0A4F803B485
:1001C000FFF7F2FF03BC00F022FF000080F3088875
:1001D000704700000948804709480047FEE7FEE7EE
:1001E000FEE7FEE7FEE7FEE7FEE7FEE7FEE7FEE7E7
:1001F00004480549054A064B70470000090B0008F2
:100200003101000800B0002000D0002000C0002014
:1002100000C00020704700000FB4044910B503AAC5
:10022000029800F009F810BC5DF814FBB000002043
:100230007047704770477047074B70B50D467B4459
:1002400000F011F80446284600F020F810B14FF0F5
:10025000FF3070BD204670BDE70D000001694A1CEB
:1002600002610878704700B58FB0CDE901310021F7
:10027000059105497944CDE903101146684600F01F
:100280002EF80FB000BD0000E5FFFFFF007B00F07F
:1002900080007047754600F03FF8AE46050069469D
:1002A000534620F00700854618B020B5FFF7A0FFA1
:1002B000BDE820404FF000064FF000074FF0000867
:1002C0004FF0000B21F00701AC46ACE8C009ACE8E8
:1002D000C009ACE8C009ACE8C0098D4670472DE9FB
:1002E000F04106460024D6E90170F56880463046A4
:1002F00003E04146B847641C3046A8470028F8D1BF
:100300002046BDE8F08110B50446AFF300802046DA
:10031000BDE81040FFF753BF00487047CC000020F5
:10032000002141700249096809B10121017070473B
:10033000B400002070B50446206A00F0DDFDC5B2AF
:10034000054806490968455404480068401C0349AB
:1003500008600120607070BD00100020B400002013
:100360000EB50121022000F0CDFA0020ADF8060004
:10037000ADF8020040F2E730ADF804004720ADF8D8
:10038000000000208DF808006946084800F028FCAD
:100390000121064800F0F8FB01221146034800F055
:1003A00016FC0121014800F0F5FB0EBD00040040E1
:1003B00010B500F003F8FFF7D3FF10BD08B51D20FE
:1003C0008DF8000001208DF8030000208DF8010059
:1003D0008DF80200684600F051FA08BD70B5054678
:1003E000002404E0204600F0CBF9601CC4B2AC420B
:1003F000F8DB70BD00BFFEE77047000030B5044673
:1004000004254FF4302000F085F80546042D17D15F
:100410000C48006940F002000A490861084644613E
:10042000006940F0400008614FF4302000F072F89D
:1004300005460448006941F6FD710840014908611C
:10044000284630BD0020024004200B49C96801F055
:10045000010109B101200EE00749C96801F004015A
:1004600009B1022007E00449C96801F0100109B18F
:10047000032000E004207047002002400348006988
:1004800040F08000014908617047000000200240F0
:1004900078B506460C46042500200090E80200F0DE
:1004A00039F80546042D24D11348006940F00100B5
:1004B000114908613480E80200F02CF80546042D4B
:1004C00010D1B01C0090200C00990880E80200F0C8
:1004D00021F805460848006941F6FE7108400649C2
:1004E000086106E00448006941F6FE7108400249CF
:1004F0000861284678BD00000020024002480349F8
:100500004860034848607047230167450020024067
:10051000AB89EFCD00B502460423FFF795FF0346F4
:1005200003E0FFF791FF0346521E012B01D1002A81
:10053000F7D102B90523184600BD2DE9F041054663
:100540000F469046B5F1006F02D305F0030010B1DD
:100550000020BDE8F081FFF7D1FF2846FFF74EFFEE
:100560000646042E01D00020F3E700BF49F699109B
:10057000FFF7D0FF0428F9D1002412E000BF49F6AC
:100580009910FFF7C7FF0428F9D157F8241005EB9D
:100590008400FFF77DFF0646042E01D00020D8E737
:1005A000641C4445EAD3FFF769FF0120D1E72DE938
:1005B000F0410246002500260020002300240027E9
:1005C00091F803C00CF00F0591F803C00CF0100C6B
:1005D000BCF1000F03D091F802C04CEA050591F878
:1005E00000C0BCF1000F31D0146800202BE04FF0A8
:1005F000010C0CFA00F3B1F800C00CEA03069E42AD
:1006000020D183004FF00F0C0CFA03F7BC4305FA1E
:1006100003FC4CEA040491F803C0BCF1280F06D196
:100620004FF0010C0CFA00FCC2F814C00AE091F87B
:1006300003C0BCF1480F05D14FF0010C0CFA00FCCF
:10064000C2F810C0401C0828D1D31460B1F800C013
:10065000BCF1FF0F34DD546800202EE000F1080CDF
:100660004FF0010808FA0CF3B1F800C00CEA0306D9
:100670009E4221D183004FF00F0C0CFA03F7BC43CC
:1006800005FA03FC4CEA040491F803C0BCF1280FFE
:1006900005D100F1080C08FA0CF8C2F8148091F8A2
:1006A00003C0BCF1480F07D100F1080C4FF001085E
:1006B00008FA0CF8C2F81080401C0828CED3546009
:1006C000BDE8F0810246002093680B400BB1012089
:1006D00000E000207047416170470161704700BF32
:1006E000FEE7000070B50446064920680840B0F1F6
:1006F000005F05D12068FFF769FD6568A84700BF66
:1007000070BD00000000FE2F2DE9F043ADF6040D92
:1007100080460C4617464FF000090025002624E0CD
:10072000E0780606A07846EA0046607846EA0026A9
:1007300020780643241D3F1F28466D1C01A941F85F
:100740002060B5F5007F10D100254FF400724046BF
:10075000FFF7F3FE8146B9F1000F04D148460DF6CC
:10076000040DBDE8F08308F50068002FD8D12DB145
:100770002A4601A94046FFF7E0FE81464846EEE7DB
:1007800038B50446104901EB04114868012100F016
:10079000C9F80D4800EB0410007B8DF803000A48EF
:1007A00000EB04100088ADF80000074800EB0410CF
:1007B000407B8DF80200044901EB0411886869460A
:1007C000FFF7F5FE38BD00000400002010B54FF41F
:1007D00000412648FFF776FF28B101212348FFF7A3
:1007E00071FF01281BD122480078C0B1642000F0BD
:1007F00011FC4FF400411D48FFF764FF20B90020B1
:100800001B490870012010BD01211848FFF75AFF4D
:10081000012828D10020164908700220F3E74FF480
:1008200000411248FFF74EFF01281CD101210F485B
:10083000FFF748FFB8B90E480078A0B9642000F06F
:10084000E9FB4FF400410948FFF73CFF01280AD1BA
:1008500001210648FFF736FF28B90548007810B98E
:100860000120034908700020CDE700000008014086
:100870004400002000BFFEE77047000070B5002173
:1008800000230F22C47804B3154C246804F4E064F8
:10089000C4F5E064210AC1F10403CA40447804FAB3
:1008A00003F184781440214309010E4C0678A155C8
:1008B000047804F01F050124AC4005786D11AD00EB
:1008C00005F1E025C5F8004109E0047804F01F05B2
:1008D0000124AC40044D0678761145F8264070BDE1
:1008E0000CED00E000E400E080E100E0024901439B
:1008F000024A1160704700000000FA050CED00E0AC
:100900007047000029B1064AD2690243044BDA61FC
:1009100004E0034AD2698243014BDA617047000068
:100920000010024029B1064A92690243044B9A61C1
:1009300004E0034A92698243014B9A6170470000C8
:100940000010024030B500210022002400232D4D6C
:100950006D6805F00C0121B1042905D0082923D1C7
:1009600005E0294D056022E0274D05601FE0254D7B
:100970006D6805F47012234D6D6805F4803402250E
:1009800005EB92421CB9214D554305600BE01D4D0E
:100990006D6805F400351DB11C4D5543056002E03E
:1009A000194D5543056002E0174D056000BF00BFBB
:1009B000144D6D6805F0F0010909154D6B5C056873
:1009C000DD4045600F4D6D6805F4E061090A104D8A
:1009D0006B5C4568DD4085600A4D6D6805F46051CB
:1009E000C90A0B4D6B5C4568DD40C560054D6D68FF
:1009F00005F44041890B074D6B5CC568B5FBF3F509
:100A0000056130BD0010024000127A0000093D006F
:100A1000B8000020C8000020704710B500F002F8B0
:100A200010BD00000CB50020019000903348006814
:100A300040F480303149086000BF3048006800F45D
:100A4000003000900198401C0190009818B901985E
:100A5000B0F5A06FF1D12948006800F4003010B162
:100A60000120009001E0002000900098012843D16F
:100A70002348006840F010002149086008460068DB
:100A800020F0030008600846006840F0020008609B
:100A90001A48406819494860084640684860084656
:100AA000406840F4806048600846406820F47C104C
:100AB00048600846406840F4E8104860084600680E
:100AC00040F08070086000BF0C48006800F00070C3
:100AD0000028F9D00948406820F003000749486021
:100AE0000846406840F00200486000BF0348406884
:100AF00000F00C000828F9D10CBD000000100240E5
:100B0000002002407047000010B51348006840F014
:100B100001001149086008464068104908400E4924
:100B20004860084600680E4908400B4908600846BE
:100B3000006820F4802008600846406820F4FE0029
:100B400048604FF41F008860FFF767FF4FF00060B8
:100B50000449086010BD0000001002400000FFF8CA
:100B6000FFFFF6FE08ED00E010B50121054800F09A
:100B70001DF828B10121034800F009F800F082F8BF
:100B800010BD000000040040CA4302827047CA43FF
:100B90000282704721B1028842F00102028004E023
:100BA00002884FF6FE731A400280704730B5024645
:100BB000002000230024158A05EA0103958905EA2F
:100BC000010413B10CB1012000E0002030BD1AB1C6
:100BD00083890B43838102E083898B438381704740
:100BE000002202881D4B98420ED01D4B98420BD01C
:100BF000B0F1804F08D01B4B984205D01A4B984259
:100C000002D01A4B984204D14FF68F731A404B888A
:100C10001A43174B984207D0164B984204D04FF610
:100C2000FF431A40CB881A4302808B8883850B8848
:100C300003850A4B98420BD0094B984208D00E4BC3
:100C4000984205D00D4B984202D00D4B984201D1ED
:100C50000B7A03860123838270470000002C014039
:100C6000003401400004004000080040000C004037
:100C700000100040001400400040014000440140CA
:100C80000048014010B51848006820B116480068B7
:100C9000401E1549086015480068401C134908604B
:100CA0001349096888421ED900201049086011487C
:100CB000007860B14FF480710F48FFF70CFD0421FC
:100CC0000E48FFF708FD00200A4908700BE04FF4BA
:100CD00080710948FFF701FD04210848FFF7FDFC7A
:100CE00001200449087010BD480000205000002079
:100CF0004C00002054000020000801400014014076
:100D000010B540F225510E4800F03BF838B140F2E2
:100D100025510B4800F01AF80A48FFF70BFB40F288
:100D20002441074800F02DF828B10648FFF7F8FAEB
:100D30000348001D008800200349088010BD000002
:100D40000038014088000020042C014010B500222A
:100D5000002340F66A14A14200D100BF0A12012408
:100D60009440A3B2DC43048010BD21B1828942F4D7
:100D70000052828104E082894DF6FF731A4082811D
:100D8000704770B50246002400230025002040F67D
:100D90006A16B14200D100BFC1F3421501F01F0332
:100DA000012606FA03F3012D02D19689334006E0AD
:100DB000022D02D1168A334001E0968A33400C128C
:100DC000012606FA04F41688344013B10CB1012050
:100DD00000E0002070BDF0B5034600240026002589
:100DE000002040F66A17B94200D100BF1846C1F38F
:100DF000421401F01F06012707FA06F5012C01D164
:100E00000C3004E0022C01D1103000E014301AB193
:100E100007682F43076002E00768AF430760F0BD33
:100E20002DE9F04786B005460E460024A24600BFD5
:100E3000A1460027B08900B100BF2F462C8A4CF68E
:100E4000FF700440F08804432C82AC894EF6F31006
:100E50000440B08831890843718908430443AC8158
:100E6000AC8A4FF6FF400440B0890443AC8201A82D
:100E7000FFF768FD1F48874202D1DDF810A001E0AE
:100E8000DDF80CA0A88900F4004040B10AEBCA00CC
:100E900000EB0A1031684900B0FBF1F807E00AEBFB
:100EA000CA0000EB0A1031688900B0FBF1F8642039
:100EB000B8FBF0F004012009642101FB1089A88926
:100EC00000F4004040B1322000EBC900B0FBF1F06B
:100ED00000F00700044308E0322000EB0910642111
:100EE000B0FBF1F000F00F0004432C8106B0BDE828
:100EF000F08700000038014001468888C0F30800F0
:100F00007047000010B586B0044601216069FFF704
:100F100009FD2E49206A884204D10121A069FFF70A
:100F200001FD03E00121A069FFF7ECFC18208DF81A
:100F300017002089ADF8140003208DF8160005A9CC
:100F4000606AFFF734FB04208DF81700E088ADF8E5
:100F5000140005A9606AFFF72AFBE06818B90020B1
:100F6000ADF8080003E04FF48050ADF808001849D0
:100F7000206951F8200001900020ADF810000C20ED
:100F8000ADF80E00A08980B2ADF80C000020ADF8DD
:100F90000A0001A9206AFFF743FF012240F2255110
:100FA000206AFFF718FF012240F22441206AFFF770
:100FB00012FF002240F22771206AFFF70CFF012187
:100FC000206AFFF7D2FE06B010BD000000380140D5
:100FD0005800002010B50446204600F004F82046D2
:100FE000FFF790FF10BD38B50446207F8DF8000054
:100FF00001208DF80300E0788DF8010020798DF84C
:1010000002006846FFF73AFC38BD00BFFEE700BFAC
:10101000704700000349086000BF024909680029C1
:10102000FBD170474800002000BF054A128802F03B
:101030004002002AF9D0C2B2014B1B1D1A80704732
:10104000003801404FF4A060FFF750FC0420FFF788
:10105000C5F9FFF7ADF94B48FFF7BCFF002413E0DB
:101060004FF4FA70FFF7D6FF601CC0B204460628A2
:101070000ADB45A0FFF7D0F84FF4FA704D4908603D
:1010800001204D49087005E001214C48FFF71AFB8B
:101090000128E5D000BF73E047480078C0B9484850
:1010A000406800F07F40B0F1006F09D145A0FFF724
:1010B000B3F86420FFF7AEFF4148FFF713FB5FE092
:1010C00044A0FFF7A9F84FF47A70FFF7A3FF57E0A9
:1010D00039480078012853D12A480078012809D1DD
:1010E00000202849087040A0FFF796F84FF47A7066
:1010F0003049086044480068002841D0FFF766FB8B
:10110000012802D0022839D106E000203E490860BB
:101110003EA0FFF781F832E04048406800F07F4091
:10112000B0F1006F23D13EA0FFF776F8C820214927
:1011300008603548424902682148FFF7E5FA58B18E
:1011400040A0FFF769F800202F4908601A4908708D
:101150006420FFF75FFF05E000202B49086041A0F5
:10116000FFF75AF84FF47A701249086005E0002042
:101170002549086045A0FFF74FF800E000BF00BF19
:101180008AE7000088000020BDF8C8EB494150B84C
:10119000FCD0C2C4A3CABDA3ACC7EBB7A2CBCDCF12
:1011A000E0B9D862696ECEC4BCFE2E2E2E2E2E2E35
:1011B000000000004C00002000000020000801405A
:1011C00000000108D4CBD0D0B9CCBCFE2E2E2E2EE0
:1011D0002E2E0000CEDEB9CCBCFEBFC9D4CBD0D001
:1011E0002E2E2E2E2E2E0000BDD3CAD5CDEAB3C989
:1011F000A3ACC7EBC8B7C8CFBBF2D5DFC7E5B3FD1B
:101200002E2E2E2E2E2E0000B4000020D2D1C7E5A7
:10121000B3FD2E2E2E2E2E2E0000000000100020DA
:10122000D5FDD4DAD0B4C8EBB9CCBCFEA3ACC7EBC7
:10123000CEF0B2D9D7F72E2E2E2E2E2E0000000083
:1012400000100020D0B4C8EBCDEAB3C9A3ACBDAB4D
:10125000D7D4B6AFD4CBD0D0B9CCBCFE2E2E2E2E48
:101260002E2E0000D0B4C8EBCAA7B0DCA3ACC7EBED
:10127000BCECB2E9BAF3D6D8D0C2C9CFB4ABD0B4C3
:10128000C8EB2E2E2E2E2E2E00000000B9CCBCFE58
:10129000B5D8D6B7D3D0CEF3A3ACC7EBD6D8D0C28F
:1012A000B7A2CBCDB9CCBCFE2E2E2E2E2E2E0000FA
:1012B000D012000800000020CC0000006C010008E3
:1012C0009C130008CC00002034CF000088010008E7
:1012D00000000000000100000400000000080140C0
:1012E0001003000004000000200000000014014072
:1012F000100300000080000004000000000801400E
:101300004803000001000000040000000008014044
:10131000280300000100000000000000E8030000B6
:101320000000000001000000B0040000600900009F
:10133000C012000080250000004B00000096000055
:1013400000E1000000C20100008403000000000072
:10135000000400000006000000000002030000047A
:101360000002000000000000070000000400000070
:101370000040000025000000003801400008014046
:101380000000000000000000000000000102030453
:0C13900001020304060708090204060815
:0400000508000131BD
:00000001FF
